{
  "contractName": "Bidding",
  "abi": [
    {
      "inputs": [],
      "payable": false,
      "stateMutability": "nonpayable",
      "type": "constructor"
    },
    {
      "constant": true,
      "inputs": [],
      "name": "ownerAddress",
      "outputs": [
        {
          "internalType": "address",
          "name": "",
          "type": "address"
        }
      ],
      "payable": false,
      "stateMutability": "view",
      "type": "function"
    },
    {
      "constant": false,
      "inputs": [
        {
          "internalType": "address",
          "name": "contractAddress",
          "type": "address"
        }
      ],
      "name": "setTokenContracAddress",
      "outputs": [],
      "payable": true,
      "stateMutability": "payable",
      "type": "function"
    },
    {
      "constant": false,
      "inputs": [
        {
          "internalType": "address",
          "name": "_ownerAddress",
          "type": "address"
        }
      ],
      "name": "addCropForAuction",
      "outputs": [
        {
          "internalType": "bool",
          "name": "",
          "type": "bool"
        }
      ],
      "payable": false,
      "stateMutability": "nonpayable",
      "type": "function"
    },
    {
      "constant": false,
      "inputs": [
        {
          "internalType": "uint256",
          "name": "_cropID",
          "type": "uint256"
        },
        {
          "internalType": "uint256",
          "name": "_amount",
          "type": "uint256"
        }
      ],
      "name": "lockAmount",
      "outputs": [
        {
          "internalType": "bool",
          "name": "",
          "type": "bool"
        }
      ],
      "payable": true,
      "stateMutability": "payable",
      "type": "function"
    },
    {
      "constant": false,
      "inputs": [
        {
          "internalType": "uint256",
          "name": "_cropID",
          "type": "uint256"
        },
        {
          "internalType": "uint256",
          "name": "_bidAmount",
          "type": "uint256"
        }
      ],
      "name": "enterBid",
      "outputs": [
        {
          "internalType": "bool",
          "name": "",
          "type": "bool"
        }
      ],
      "payable": false,
      "stateMutability": "nonpayable",
      "type": "function"
    },
    {
      "constant": true,
      "inputs": [
        {
          "internalType": "uint256",
          "name": "_cropID",
          "type": "uint256"
        }
      ],
      "name": "findCurrentHighestBidder",
      "outputs": [
        {
          "internalType": "address",
          "name": "",
          "type": "address"
        },
        {
          "internalType": "uint256",
          "name": "",
          "type": "uint256"
        }
      ],
      "payable": false,
      "stateMutability": "view",
      "type": "function"
    },
    {
      "constant": false,
      "inputs": [
        {
          "internalType": "uint256",
          "name": "_cropID",
          "type": "uint256"
        }
      ],
      "name": "endAuction",
      "outputs": [
        {
          "internalType": "address",
          "name": "",
          "type": "address"
        },
        {
          "internalType": "uint256",
          "name": "",
          "type": "uint256"
        }
      ],
      "payable": true,
      "stateMutability": "payable",
      "type": "function"
    },
    {
      "constant": true,
      "inputs": [
        {
          "internalType": "uint256",
          "name": "_cropID",
          "type": "uint256"
        }
      ],
      "name": "getYourBidding",
      "outputs": [
        {
          "internalType": "uint256[]",
          "name": "",
          "type": "uint256[]"
        }
      ],
      "payable": false,
      "stateMutability": "view",
      "type": "function"
    },
    {
      "constant": true,
      "inputs": [
        {
          "internalType": "uint256",
          "name": "_cropID",
          "type": "uint256"
        }
      ],
      "name": "getBidderList",
      "outputs": [
        {
          "internalType": "address[]",
          "name": "",
          "type": "address[]"
        }
      ],
      "payable": false,
      "stateMutability": "view",
      "type": "function"
    }
  ],
  "bytecode": "0x6080604052600060085534801561001557600080fd5b5033600360006101000a81548173ffffffffffffffffffffffffffffffffffffffff021916908373ffffffffffffffffffffffffffffffffffffffff16021790555061143e806100666000396000f3fe6080604052600436106100865760003560e01c80638f84aa09116100595780638f84aa0914610225578063abac59061461027c578063b9a2de3a146102fe578063d971ad4814610373578063fdaf513d1461040357610086565b80630f6f3e061461008b57806357ceee14146100e8578063664a0a89146101785780638a06dfc8146101e1575b600080fd5b34801561009757600080fd5b506100ce600480360360408110156100ae57600080fd5b810190808035906020019092919080359060200190929190505050610453565b604051808215151515815260200191505060405180910390f35b3480156100f457600080fd5b506101216004803603602081101561010b57600080fd5b810190808035906020019092919050505061060b565b6040518080602001828103825283818151815260200191508051906020019060200280838360005b83811015610164578082015181840152602081019050610149565b505050509050019250505060405180910390f35b34801561018457600080fd5b506101c76004803603602081101561019b57600080fd5b81019080803573ffffffffffffffffffffffffffffffffffffffff1690602001909291905050506106b3565b604051808215151515815260200191505060405180910390f35b610223600480360360208110156101f757600080fd5b81019080803573ffffffffffffffffffffffffffffffffffffffff1690602001909291905050506107a8565b005b34801561023157600080fd5b5061023a610845565b604051808273ffffffffffffffffffffffffffffffffffffffff1673ffffffffffffffffffffffffffffffffffffffff16815260200191505060405180910390f35b34801561028857600080fd5b506102b56004803603602081101561029f57600080fd5b810190808035906020019092919050505061086b565b604051808373ffffffffffffffffffffffffffffffffffffffff1673ffffffffffffffffffffffffffffffffffffffff1681526020018281526020019250505060405180910390f35b61032a6004803603602081101561031457600080fd5b81019080803590602001909291905050506108c5565b604051808373ffffffffffffffffffffffffffffffffffffffff1673ffffffffffffffffffffffffffffffffffffffff1681526020018281526020019250505060405180910390f35b34801561037f57600080fd5b506103ac6004803603602081101561039657600080fd5b8101908080359060200190929190505050610e53565b6040518080602001828103825283818151815260200191508051906020019060200280838360005b838110156103ef5780820151818401526020810190506103d4565b505050509050019250505060405180910390f35b6104396004803603604081101561041957600080fd5b810190808035906020019092919080359060200190929190505050610ef4565b604051808215151515815260200191505060405180910390f35b600080600460003373ffffffffffffffffffffffffffffffffffffffff1673ffffffffffffffffffffffffffffffffffffffff168152602001908152602001600020600085815260200190815260200160002054141561051b576040517f08c379a000000000000000000000000000000000000000000000000000000000815260040180806020018281038252601a8152602001807f596f752068617665206e6f74206c6f636b656420416d6f756e7400000000000081525060200191505060405180910390fd5b6001600084815260200190815260200160002060003373ffffffffffffffffffffffffffffffffffffffff1673ffffffffffffffffffffffffffffffffffffffff168152602001908152602001600020829080600181540180825580915050906001820390600052602060002001600090919290919091505550336002600085815260200190815260200160002060000160006101000a81548173ffffffffffffffffffffffffffffffffffffffff021916908373ffffffffffffffffffffffffffffffffffffffff16021790555081600260008581526020019081526020016000206001018190555092915050565b60606001600083815260200190815260200160002060003373ffffffffffffffffffffffffffffffffffffffff1673ffffffffffffffffffffffffffffffffffffffff1681526020019081526020016000208054806020026020016040519081016040528092919081815260200182805480156106a757602002820191906000526020600020905b815481526020019060010190808311610693575b50505050509050919050565b6000600360009054906101000a900473ffffffffffffffffffffffffffffffffffffffff1673ffffffffffffffffffffffffffffffffffffffff163373ffffffffffffffffffffffffffffffffffffffff161461070f57600080fd5b600860008154809291906001019190505550600660085490806001815401808255809150509060018203906000526020600020016000909192909190915055508160076000600854815260200190815260200160002060006101000a81548173ffffffffffffffffffffffffffffffffffffffff021916908373ffffffffffffffffffffffffffffffffffffffff160217905550919050565b600360009054906101000a900473ffffffffffffffffffffffffffffffffffffffff1673ffffffffffffffffffffffffffffffffffffffff163373ffffffffffffffffffffffffffffffffffffffff161461080257600080fd5b806000806101000a81548173ffffffffffffffffffffffffffffffffffffffff021916908373ffffffffffffffffffffffffffffffffffffffff16021790555050565b600360009054906101000a900473ffffffffffffffffffffffffffffffffffffffff1681565b6000806002600084815260200190815260200160002060000160009054906101000a900473ffffffffffffffffffffffffffffffffffffffff16600260008581526020019081526020016000206001015491509150915091565b60008060008090505b6005600085815260200190815260200160002080549050811015610dfb576002600085815260200190815260200160002060000160009054906101000a900473ffffffffffffffffffffffffffffffffffffffff1673ffffffffffffffffffffffffffffffffffffffff1660056000868152602001908152602001600020828154811061095757fe5b9060005260206000200160009054906101000a900473ffffffffffffffffffffffffffffffffffffffff1673ffffffffffffffffffffffffffffffffffffffff1614610bbc576000809054906101000a900473ffffffffffffffffffffffffffffffffffffffff1673ffffffffffffffffffffffffffffffffffffffff166323b872dd600360009054906101000a900473ffffffffffffffffffffffffffffffffffffffff16600560008881526020019081526020016000208481548110610a1b57fe5b9060005260206000200160009054906101000a900473ffffffffffffffffffffffffffffffffffffffff1660046000600560008b81526020019081526020016000208781548110610a6857fe5b9060005260206000200160009054906101000a900473ffffffffffffffffffffffffffffffffffffffff1673ffffffffffffffffffffffffffffffffffffffff1673ffffffffffffffffffffffffffffffffffffffff1681526020019081526020016000206000898152602001908152602001600020546040518463ffffffff1660e01b8152600401808473ffffffffffffffffffffffffffffffffffffffff1673ffffffffffffffffffffffffffffffffffffffff1681526020018373ffffffffffffffffffffffffffffffffffffffff1673ffffffffffffffffffffffffffffffffffffffff1681526020018281526020019350505050602060405180830381600087803b158015610b7b57600080fd5b505af1158015610b8f573d6000803e3d6000fd5b505050506040513d6020811015610ba557600080fd5b810190808051906020019092919050505050610dee565b6000809054906101000a900473ffffffffffffffffffffffffffffffffffffffff1673ffffffffffffffffffffffffffffffffffffffff166323b872dd6002600087815260200190815260200160002060000160009054906101000a900473ffffffffffffffffffffffffffffffffffffffff166007600088815260200190815260200160002060009054906101000a900473ffffffffffffffffffffffffffffffffffffffff1660046000600560008b81526020019081526020016000208781548110610c8657fe5b9060005260206000200160009054906101000a900473ffffffffffffffffffffffffffffffffffffffff1673ffffffffffffffffffffffffffffffffffffffff1673ffffffffffffffffffffffffffffffffffffffff168152602001908152602001600020600089815260200190815260200160002054600260008a815260200190815260200160002060010154036040518463ffffffff1660e01b8152600401808473ffffffffffffffffffffffffffffffffffffffff1673ffffffffffffffffffffffffffffffffffffffff1681526020018373ffffffffffffffffffffffffffffffffffffffff1673ffffffffffffffffffffffffffffffffffffffff1681526020018281526020019350505050602060405180830381600087803b158015610db157600080fd5b505af1158015610dc5573d6000803e3d6000fd5b505050506040513d6020811015610ddb57600080fd5b8101908080519060200190929190505050505b80806001019150506108ce565b506002600084815260200190815260200160002060000160009054906101000a900473ffffffffffffffffffffffffffffffffffffffff16600260008581526020019081526020016000206001015491509150915091565b606060056000838152602001908152602001600020805480602002602001604051908101604052809291908181526020018280548015610ee857602002820191906000526020600020905b8160009054906101000a900473ffffffffffffffffffffffffffffffffffffffff1673ffffffffffffffffffffffffffffffffffffffff1681526020019060010190808311610e9e575b50505050509050919050565b6000600a8211610f6c576040517f08c379a000000000000000000000000000000000000000000000000000000000815260040180806020018281038252601f8152602001807f5f616d6f756e742063616e206e6f74206265206c657373207468616e2031300081525060200191505060405180910390fd5b816000809054906101000a900473ffffffffffffffffffffffffffffffffffffffff1673ffffffffffffffffffffffffffffffffffffffff166370a08231336040518263ffffffff1660e01b8152600401808273ffffffffffffffffffffffffffffffffffffffff1673ffffffffffffffffffffffffffffffffffffffff168152602001915050602060405180830381600087803b15801561100d57600080fd5b505af1158015611021573d6000803e3d6000fd5b505050506040513d602081101561103757600080fd5b810190808051906020019092919050505010156110bc576040517f08c379a000000000000000000000000000000000000000000000000000000000815260040180806020018281038252601a8152602001807f4e6f7420656e6f7567682062616c616e636520746f206c6f636b00000000000081525060200191505060405180910390fd5b6000600460003373ffffffffffffffffffffffffffffffffffffffff1673ffffffffffffffffffffffffffffffffffffffff16815260200190815260200160002060008581526020019081526020016000205414611182576040517f08c379a000000000000000000000000000000000000000000000000000000000815260040180806020018281038252600e8152602001807f416c7265616479206c6f636b656400000000000000000000000000000000000081525060200191505060405180910390fd5b60008060009054906101000a900473ffffffffffffffffffffffffffffffffffffffff1673ffffffffffffffffffffffffffffffffffffffff166323b872dd33600360009054906101000a900473ffffffffffffffffffffffffffffffffffffffff16866040518463ffffffff1660e01b8152600401808473ffffffffffffffffffffffffffffffffffffffff1673ffffffffffffffffffffffffffffffffffffffff1681526020018373ffffffffffffffffffffffffffffffffffffffff1673ffffffffffffffffffffffffffffffffffffffff1681526020018281526020019350505050602060405180830381600087803b15801561128257600080fd5b505af1158015611296573d6000803e3d6000fd5b505050506040513d60208110156112ac57600080fd5b8101908080519060200190929190505050905080611332576040517f08c379a000000000000000000000000000000000000000000000000000000000815260040180806020018281038252600e8152602001807f756e61626c6520746f206c6f636b00000000000000000000000000000000000081525060200191505060405180910390fd5b82600460003373ffffffffffffffffffffffffffffffffffffffff1673ffffffffffffffffffffffffffffffffffffffff168152602001908152602001600020600086815260200190815260200160002081905550600560008581526020019081526020016000203390806001815401808255809150509060018203906000526020600020016000909192909190916101000a81548173ffffffffffffffffffffffffffffffffffffffff021916908373ffffffffffffffffffffffffffffffffffffffff1602179055505060019150509291505056fea265627a7a7231582037d50320ae2f49fca292b2e3c60dab13b905c1f087bc3ae24c694ba7712f0fe464736f6c63430005100032",
  "source": "// SPDX-License-Identifier: MIT\r\n\r\npragma solidity >=0.4.22 <0.8.0;\r\n\r\ninterface ERC20{\r\n    \r\n    function balanceOf(address request) external returns (uint256);\r\n    function transferFrom(address _from, address _to, uint256 _value) external payable returns (bool success);\r\n    \r\n}\r\n\r\ncontract Bidding{\r\n    \r\n    ERC20 tokenAddress;\r\n    \r\n    struct highestBidding{\r\n        address highestBidder;\r\n        uint256 highestBid;\r\n    }\r\n    \r\n    mapping(uint256 => mapping(address =>uint256[])) cropBidderBiddings;\r\n    \r\n    mapping(uint256 => highestBidding) currentBidWinner;\r\n    \r\n    address public ownerAddress;\r\n    \r\n    mapping(address => mapping(uint256 => uint256)) lockedAmount;\r\n    \r\n    mapping(uint256 => address[]) bidderList;\r\n    \r\n    uint256[] addedCrop;\r\n    \r\n    mapping(uint256 => address) cropOwner;\r\n    \r\n    uint256 uniqueID=0;\r\n    \r\n     \r\n    modifier onlyOwner {\r\n        require(msg.sender == ownerAddress);\r\n        _;\r\n    }\r\n    \r\n    \r\n    constructor()public{\r\n        ownerAddress=msg.sender;\r\n    }\r\n    \r\n    function setTokenContracAddress(address contractAddress) public payable onlyOwner{\r\n        tokenAddress = ERC20(contractAddress);\r\n    }\r\n\r\n    \r\n    \r\n    function addCropForAuction(address _ownerAddress) public onlyOwner returns(bool){\r\n        uniqueID++;\r\n        addedCrop.push(uniqueID);\r\n        cropOwner[uniqueID]=_ownerAddress;\r\n    }\r\n    \r\n    function lockAmount( uint256 _cropID ,  uint256 _amount )public payable returns(bool){\r\n        require(_amount>10,\"_amount can not be less than 10\");\r\n        require(tokenAddress.balanceOf(msg.sender)>=_amount,\"Not enough balance to lock\");\r\n        require(lockedAmount[msg.sender][_cropID]==0,\"Already locked\");\r\n        bool issuccess=tokenAddress.transferFrom(msg.sender,ownerAddress,_amount);\r\n        require(issuccess,\"unable to lock\");\r\n        lockedAmount[msg.sender][_cropID] = _amount;  \r\n        bidderList[_cropID].push(msg.sender);\r\n        return true;\r\n        \r\n    }\r\n    \r\n    \r\n    function enterBid(uint256 _cropID,uint256 _bidAmount) public returns(bool){\r\n        require(lockedAmount[msg.sender][_cropID]!=0,\"You have not locked Amount\");\r\n         cropBidderBiddings[_cropID][msg.sender].push(_bidAmount);\r\n         currentBidWinner[_cropID].highestBidder=msg.sender;\r\n         currentBidWinner[_cropID].highestBid=_bidAmount;\r\n    }\r\n    \r\n    function findCurrentHighestBidder(uint256 _cropID) public view returns(address,uint256){\r\n        return(currentBidWinner[_cropID].highestBidder,currentBidWinner[_cropID].highestBid);\r\n    }\r\n    \r\n    function endAuction(uint256 _cropID) public payable returns(address,uint256){\r\n        for(uint256 i=0;i<bidderList[_cropID].length;i++){\r\n            if(bidderList[_cropID][i]!=currentBidWinner[_cropID].highestBidder){\r\n                tokenAddress.transferFrom(ownerAddress,bidderList[_cropID][i],lockedAmount[bidderList[_cropID][i]][_cropID]);\r\n            }\r\n            else{\r\n                tokenAddress.transferFrom(currentBidWinner[_cropID].highestBidder,cropOwner[_cropID],currentBidWinner[_cropID].highestBid-lockedAmount[bidderList[_cropID][i]][_cropID]);\r\n            }\r\n        }\r\n        return(currentBidWinner[_cropID].highestBidder,currentBidWinner[_cropID].highestBid);\r\n    }\r\n    \r\n    function getYourBidding(uint256 _cropID)public view returns(uint256[] memory){\r\n        return cropBidderBiddings[_cropID][msg.sender];\r\n    }\r\n    function getBidderList(uint256 _cropID) public view returns(address[] memory){\r\n        return bidderList[_cropID];\r\n    }\r\n}",
  "sourcePath": "C:/Users/vishn/OneDrive/Desktop/Hacknovate 1.0/MarketPlace/contracts/Bidding.sol",
  "compiler": {
    "name": "solc",
    "version": "0.5.16+commit.9c3226ce.Emscripten.clang"
  },
  "schemaVersion": "3.3.1",
  "updatedAt": "2020-11-07T02:54:49.569Z",
  "devdoc": {
    "methods": {}
  },
  "userdoc": {
    "methods": {}
  }
}