{
  "contractName": "MarketPlace",
  "abi": [
    {
      "inputs": [],
      "payable": false,
      "stateMutability": "nonpayable",
      "type": "constructor"
    },
    {
      "constant": true,
      "inputs": [],
      "name": "ownerAddress",
      "outputs": [
        {
          "internalType": "address",
          "name": "",
          "type": "address"
        }
      ],
      "payable": false,
      "stateMutability": "view",
      "type": "function"
    },
    {
      "constant": false,
      "inputs": [
        {
          "internalType": "address",
          "name": "contractAddress",
          "type": "address"
        }
      ],
      "name": "setTokenContracAddress",
      "outputs": [],
      "payable": true,
      "stateMutability": "payable",
      "type": "function"
    },
    {
      "constant": false,
      "inputs": [
        {
          "internalType": "uint256",
          "name": "_tokenAmount",
          "type": "uint256"
        }
      ],
      "name": "buyToken",
      "outputs": [
        {
          "internalType": "bool",
          "name": "",
          "type": "bool"
        }
      ],
      "payable": false,
      "stateMutability": "nonpayable",
      "type": "function"
    },
    {
      "constant": false,
      "inputs": [
        {
          "internalType": "uint256",
          "name": "_tokenAmount",
          "type": "uint256"
        }
      ],
      "name": "sellToken",
      "outputs": [
        {
          "internalType": "bool",
          "name": "",
          "type": "bool"
        }
      ],
      "payable": false,
      "stateMutability": "nonpayable",
      "type": "function"
    }
  ],
  "bytecode": "0x608060405234801561001057600080fd5b5033600260006101000a81548173ffffffffffffffffffffffffffffffffffffffff021916908373ffffffffffffffffffffffffffffffffffffffff1602179055506107b3806100616000396000f3fe60806040526004361061003f5760003560e01c80632397e4d7146100445780632d296bf1146100975780638a06dfc8146100ea5780638f84aa091461012e575b600080fd5b34801561005057600080fd5b5061007d6004803603602081101561006757600080fd5b8101908080359060200190929190505050610185565b604051808215151515815260200191505060405180910390f35b3480156100a357600080fd5b506100d0600480360360208110156100ba57600080fd5b8101908080359060200190929190505050610420565b604051808215151515815260200191505060405180910390f35b61012c6004803603602081101561010057600080fd5b81019080803573ffffffffffffffffffffffffffffffffffffffff1690602001909291905050506106ba565b005b34801561013a57600080fd5b50610143610758565b604051808273ffffffffffffffffffffffffffffffffffffffff1673ffffffffffffffffffffffffffffffffffffffff16815260200191505060405180910390f35b60008082116101fc576040517f08c379a000000000000000000000000000000000000000000000000000000000815260040180806020018281038252601c8152602001807f546f6b656e20616d6f756e742063616e206e6f74206265207a65726f0000000081525060200191505060405180910390fd5b6000600360009054906101000a900473ffffffffffffffffffffffffffffffffffffffff1673ffffffffffffffffffffffffffffffffffffffff166323b872dd33600260009054906101000a900473ffffffffffffffffffffffffffffffffffffffff16866040518463ffffffff1660e01b8152600401808473ffffffffffffffffffffffffffffffffffffffff1673ffffffffffffffffffffffffffffffffffffffff1681526020018373ffffffffffffffffffffffffffffffffffffffff1673ffffffffffffffffffffffffffffffffffffffff1681526020018281526020019350505050602060405180830381600087803b1580156102fd57600080fd5b505af1158015610311573d6000803e3d6000fd5b505050506040513d602081101561032757600080fd5b81019080805190602001909291905050509050806103ad576040517f08c379a000000000000000000000000000000000000000000000000000000000815260040180806020018281038252600e8152602001807f4e6f74207375636365737366756c00000000000000000000000000000000000081525060200191505060405180910390fd5b600160003373ffffffffffffffffffffffffffffffffffffffff1673ffffffffffffffffffffffffffffffffffffffff1681526020019081526020016000208390806001815401808255809150509060018203906000526020600020016000909192909190915055506001915050919050565b6000808211610497576040517f08c379a000000000000000000000000000000000000000000000000000000000815260040180806020018281038252601c8152602001807f546f6b656e20616d6f756e742063616e206e6f74206265207a65726f0000000081525060200191505060405180910390fd5b6000600360009054906101000a900473ffffffffffffffffffffffffffffffffffffffff1673ffffffffffffffffffffffffffffffffffffffff166323b872dd600260009054906101000a900473ffffffffffffffffffffffffffffffffffffffff1633866040518463ffffffff1660e01b8152600401808473ffffffffffffffffffffffffffffffffffffffff1673ffffffffffffffffffffffffffffffffffffffff1681526020018373ffffffffffffffffffffffffffffffffffffffff1673ffffffffffffffffffffffffffffffffffffffff1681526020018281526020019350505050602060405180830381600087803b15801561059857600080fd5b505af11580156105ac573d6000803e3d6000fd5b505050506040513d60208110156105c257600080fd5b8101908080519060200190929190505050905080610648576040517f08c379a000000000000000000000000000000000000000000000000000000000815260040180806020018281038252600e8152602001807f4e6f74207375636365737366756c00000000000000000000000000000000000081525060200191505060405180910390fd5b6000803373ffffffffffffffffffffffffffffffffffffffff1673ffffffffffffffffffffffffffffffffffffffff1681526020019081526020016000208390806001815401808255809150509060018203906000526020600020016000909192909190915055506001915050919050565b600260009054906101000a900473ffffffffffffffffffffffffffffffffffffffff1673ffffffffffffffffffffffffffffffffffffffff163373ffffffffffffffffffffffffffffffffffffffff161461071457600080fd5b80600360006101000a81548173ffffffffffffffffffffffffffffffffffffffff021916908373ffffffffffffffffffffffffffffffffffffffff16021790555050565b600260009054906101000a900473ffffffffffffffffffffffffffffffffffffffff168156fea265627a7a72315820647d0c218807bdcc1039b965f9dc16a9e2201898182338c2b0b4c7346e40c85664736f6c63430005100032",
  "source": "// SPDX-License-Identifier: MIT\r\n\r\npragma solidity >=0.4.22 <0.8.0;\r\n\r\ninterface ERC20{\r\n    \r\n    function balanceOf(address request) external returns (uint256);\r\n    function transferFrom(address _from, address _to, uint256 _value) external payable returns (bool success);\r\n    \r\n}\r\n\r\n\r\ncontract MarketPlace{\r\n    \r\n    mapping(address =>uint256[]) buyHistory;\r\n    mapping(address => uint256[]) sellHistory;\r\n    address public ownerAddress;\r\n    \r\n    ERC20 tokenAddress;\r\n    \r\n    modifier onlyOwner {\r\n        require(msg.sender == ownerAddress);\r\n        _;\r\n    }\r\n    \r\n    constructor()public{\r\n        ownerAddress=msg.sender;\r\n    }\r\n    \r\n    function setTokenContracAddress(address contractAddress) public payable onlyOwner{\r\n        tokenAddress = ERC20(contractAddress);\r\n    }\r\n\r\n    function buyToken(uint256 _tokenAmount) public returns(bool){\r\n        require(_tokenAmount>0,\"Token amount can not be zero\");\r\n        bool issuccess=tokenAddress.transferFrom(ownerAddress,msg.sender,_tokenAmount);\r\n        require(issuccess,\"Not successful\");\r\n        buyHistory[msg.sender].push(_tokenAmount);\r\n        return true;\r\n    }\r\n    \r\n    function sellToken(uint256 _tokenAmount)public returns(bool){\r\n        require(_tokenAmount>0,\"Token amount can not be zero\");\r\n        bool issuccess=tokenAddress.transferFrom(msg.sender,ownerAddress,_tokenAmount);\r\n        require(issuccess,\"Not successful\");\r\n        sellHistory[msg.sender].push(_tokenAmount);\r\n        return true;\r\n    }\r\n\r\n}",
  "sourcePath": "C:/Users/vishn/OneDrive/Desktop/Hacknovate 1.0/MarketPlace/contracts/MarketPlace.sol",
  "compiler": {
    "name": "solc",
    "version": "0.5.16+commit.9c3226ce.Emscripten.clang"
  },
  "schemaVersion": "3.3.1",
  "updatedAt": "2020-11-07T02:54:49.622Z",
  "devdoc": {
    "methods": {}
  },
  "userdoc": {
    "methods": {}
  }
}